{
  "contractName": "TonMinter",
  "abi": [
    {
      "inputs": [],
      "stateMutability": "nonpayable",
      "type": "constructor"
    },
    {
      "anonymous": false,
      "inputs": [
        {
          "indexed": true,
          "internalType": "address",
          "name": "previousOwner",
          "type": "address"
        },
        {
          "indexed": true,
          "internalType": "address",
          "name": "newOwner",
          "type": "address"
        }
      ],
      "name": "OwnershipTransferred",
      "type": "event"
    },
    {
      "inputs": [],
      "name": "creolSuper",
      "outputs": [
        {
          "internalType": "address",
          "name": "",
          "type": "address"
        }
      ],
      "stateMutability": "view",
      "type": "function"
    },
    {
      "inputs": [],
      "name": "owner",
      "outputs": [
        {
          "internalType": "address",
          "name": "",
          "type": "address"
        }
      ],
      "stateMutability": "view",
      "type": "function"
    },
    {
      "inputs": [],
      "name": "renounceOwnership",
      "outputs": [],
      "stateMutability": "nonpayable",
      "type": "function"
    },
    {
      "inputs": [
        {
          "internalType": "address",
          "name": "newOwner",
          "type": "address"
        }
      ],
      "name": "transferOwnership",
      "outputs": [],
      "stateMutability": "nonpayable",
      "type": "function"
    }
  ],
  "bytecode": "0x608060405234801561001057600080fd5b506102ea806100206000396000f3fe608060405234801561001057600080fd5b506004361061004c5760003560e01c806337800b2214610051578063715018a6146100755780638da5cb5b1461007f578063f2fde38b14610087575b600080fd5b6100596100ad565b604080516001600160a01b039092168252519081900360200190f35b61007d6100bc565b005b610059610170565b61007d6004803603602081101561009d57600080fd5b50356001600160a01b031661017f565b6097546001600160a01b031681565b6100c461028a565b6065546001600160a01b03908116911614610126576040805162461bcd60e51b815260206004820181905260248201527f4f776e61626c653a2063616c6c6572206973206e6f7420746865206f776e6572604482015290519081900360640190fd5b6065546040516000916001600160a01b0316907f8be0079c531659141344cd1fd0a4f28419497f9722a3daafe3b4186f6b6457e0908390a3606580546001600160a01b0319169055565b6065546001600160a01b031690565b61018761028a565b6065546001600160a01b039081169116146101e9576040805162461bcd60e51b815260206004820181905260248201527f4f776e61626c653a2063616c6c6572206973206e6f7420746865206f776e6572604482015290519081900360640190fd5b6001600160a01b03811661022e5760405162461bcd60e51b815260040180806020018281038252602681526020018061028f6026913960400191505060405180910390fd5b6065546040516001600160a01b038084169216907f8be0079c531659141344cd1fd0a4f28419497f9722a3daafe3b4186f6b6457e090600090a3606580546001600160a01b0319166001600160a01b0392909216919091179055565b339056fe4f776e61626c653a206e6577206f776e657220697320746865207a65726f2061646472657373a26469706673582212208ce97b826ad37c6d18a7781be8b2c8449226a4cce9d1f1b0c1a7191b3d8fe36c64736f6c63430006020033",
  "source": "/*\n  @title TonMinter v0.0.1\n ________  ________  _______   ________  ___          \n|\\   ____\\|\\   __  \\|\\  ___ \\ |\\   __  \\|\\  \\         \n\\ \\  \\___|\\ \\  \\|\\  \\ \\   __/|\\ \\  \\|\\  \\ \\  \\        \n \\ \\  \\    \\ \\   _  _\\ \\  \\_|/_\\ \\  \\\\\\  \\ \\  \\       \n  \\ \\  \\____\\ \\  \\\\  \\\\ \\  \\_|\\ \\ \\  \\\\\\  \\ \\  \\____  \n   \\ \\_______\\ \\__\\\\ _\\\\ \\_______\\ \\_______\\ \\_______\\\n    \\|_______|\\|__|\\|__|\\|_______|\\|_______|\\|_______|\n                                             \n \n \n\n  _______          __  __ _       _            \n |__   __|        |  \\/  (_)     | |           \n    | | ___  _ __ | \\  / |_ _ __ | |_ ___ _ __ \n    | |/ _ \\| '_ \\| |\\/| | | '_ \\| __/ _ \\ '__|\n    | | (_) | | | | |  | | | | | | ||  __/ |   \n    |_|\\___/|_| |_|_|  |_|_|_| |_|\\__\\___|_|   \n                                               \n                                               \n                        \nAuthor:      Joshua Bijak\nDate:        April 09, 2021\nTitle:       TonMinter Prototype\nDescription: Contract that accepts signed proofs of a IoT Cookstove and mints an NFT ton when it hits 1000kg\n              \n  ___                            _       \n|_ _|_ __ ___  _ __   ___  _ __| |_ ___ \n | || '_ ` _ \\| '_ \\ / _ \\| '__| __/ __|\n | || | | | | | |_) | (_) | |  | |_\\__ \\\n|___|_| |_| |_| .__/ \\___/|_|   \\__|___/\n              |_|                       \n\n*/\npragma solidity ^0.6.2;\n\n\nimport \"@openzeppelin/contracts-ethereum-package/contracts/token/ERC721/IERC721.sol\";\nimport \"@openzeppelin/contracts-ethereum-package/contracts/token/ERC721/IERC721Metadata.sol\";\nimport \"@openzeppelin/contracts-ethereum-package/contracts/token/ERC721/IERC721Enumerable.sol\";\n\nimport \"@openzeppelin/contracts-ethereum-package/contracts/introspection/IERC165.sol\";\n\n\nimport \"@openzeppelin/contracts-ethereum-package/contracts/access/Ownable.sol\";\nimport \"@openzeppelin/contracts-ethereum-package/contracts/math/SafeMath.sol\";\n\nimport \"./CarbonVCUInterface.sol\";\n/*\n  _____            _                  _   \n / ____|          | |                | |  \n| |     ___  _ __ | |_ _ __ __ _  ___| |_ \n| |    / _ \\| '_ \\| __| '__/ _` |/ __| __|\n| |___| (_) | | | | |_| | | (_| | (__| |_ \n \\_____\\___/|_| |_|\\__|_|  \\__,_|\\___|\\__|\n\n*/\n/**\n * @author Joshua Bijak\n * @title TonMinter\n * @dev  Contract that accepts signed proofs of a IoT Cookstove and mints an NFT ton when it hits 1000kg\n * @notice Prototype Contract that accepts signed proofs of a IoT Cookstove and mints an NFT ton when it hits 1000kg\n * \n */\ncontract TonMinter is Initializable, OwnableUpgradeSafe {\n    \n    /**\n     * \n          ______               _       \n         |  ____|             | |      \n         | |____   _____ _ __ | |_ ___ \n         |  __\\ \\ / / _ \\ '_ \\| __/ __|\n         | |___\\ V /  __/ | | | |_\\__ \\\n         |______\\_/ \\___|_| |_|\\__|___/\n                                       \n     * \n     * \n     */\n\n   \n    \n        \n    /**\n     * \n     *    _____ _        _   _          \n         / ____| |      | | (_)         \n        | (___ | |_ __ _| |_ _  ___ ___ \n         \\___ \\| __/ _` | __| |/ __/ __|\n         ____) | || (_| | |_| | (__\\__ \\\n        |_____/ \\__\\__,_|\\__|_|\\___|___/\n     * \n     * \n     */\n     \n    using SafeMath for uint256;\n    \n    address public creolSuper;\n    \n    /**\n     *   __  __           _ _  __ _               \n        |  \\/  |         | (_)/ _(_)              \n        | \\  / | ___   __| |_| |_ _  ___ _ __ ___ \n        | |\\/| |/ _ \\ / _` | |  _| |/ _ \\ '__/ __|\n        | |  | | (_) | (_| | | | | |  __/ |  \\__ \\\n        |_|  |_|\\___/ \\__,_|_|_| |_|\\___|_|  |___/\n        \n    */\n    modifier onlyCreolSuper(){\n        require(msg.sender == creolSuper);\n        _;\n    }\n    \n   \n     \n     /**\n      *   ______                _   _                 \n         |  ____|              | | (_)                \n         | |__ _   _ _ __   ___| |_ _  ___  _ __  ___ \n         |  __| | | | '_ \\ / __| __| |/ _ \\| '_ \\/ __|\n         | |  | |_| | | | | (__| |_| | (_) | | | \\__ \\\n         |_|   \\__,_|_| |_|\\___|\\__|_|\\___/|_| |_|___/\n     */\n     \n    \n     \n     constructor () public {\n         \n     }\n\n/**\n * \n * \n *   _                      _ \n    | |                    | |\n    | |     ___  __ _  __ _| |\n    | |    / _ \\/ _` |/ _` | |\n    | |___|  __/ (_| | (_| | |\n    |______\\___|\\__, |\\__,_|_|\n                 __/ |        \n                |___/    \n * \n * They come with no warranty and are not for use in a production setting. For production usage, please contact joshua.bijak@creol.io\n * \n */\n }\n \n",
  "sourcePath": "/d/Repos/creol-io/ECS-TonMinter/contracts/TonMinter.sol",
  "compiler": {
    "name": "solc",
    "version": "0.6.2+commit.bacdbe57.Emscripten.clang"
  },
  "schemaVersion": "3.3.4",
  "updatedAt": "2021-04-09T23:38:19.282Z",
  "devdoc": {
    "author": "Joshua Bijak",
    "details": "Contract that accepts signed proofs of a IoT Cookstove and mints an NFT ton when it hits 1000kg",
    "methods": {
      "owner()": {
        "details": "Returns the address of the current owner."
      },
      "renounceOwnership()": {
        "details": "Leaves the contract without owner. It will not be possible to call `onlyOwner` functions anymore. Can only be called by the current owner.     * NOTE: Renouncing ownership will leave the contract without an owner, thereby removing any functionality that is only available to the owner."
      },
      "transferOwnership(address)": {
        "details": "Transfers ownership of the contract to a new account (`newOwner`). Can only be called by the current owner."
      }
    },
    "title": "TonMinter"
  },
  "userdoc": {
    "methods": {
      "constructor": "______                _   _                  |  ____|              | | (_)                 | |__ _   _ _ __   ___| |_ _  ___  _ __  ___  |  __| | | | '_ \\ / __| __| |/ _ \\| '_ \\/ __| | |  | |_| | | | | (__| |_| | (_) | | | \\__ \\ |_|   \\__,_|_| |_|\\___|\\__|_|\\___/|_| |_|___/"
    },
    "notice": "Prototype Contract that accepts signed proofs of a IoT Cookstove and mints an NFT ton when it hits 1000kg  "
  }
}