{
  "contractName": "TonMinter",
  "abi": [
    {
      "inputs": [],
      "stateMutability": "nonpayable",
      "type": "constructor"
    },
    {
      "anonymous": false,
      "inputs": [
        {
          "indexed": true,
          "internalType": "address",
          "name": "previousOwner",
          "type": "address"
        },
        {
          "indexed": true,
          "internalType": "address",
          "name": "newOwner",
          "type": "address"
        }
      ],
      "name": "OwnershipTransferred",
      "type": "event"
    },
    {
      "anonymous": false,
      "inputs": [
        {
          "indexed": false,
          "internalType": "uint256",
          "name": "pendingCO2eGrams",
          "type": "uint256"
        }
      ],
      "name": "newPendingCO2eGrams",
      "type": "event"
    },
    {
      "anonymous": false,
      "inputs": [
        {
          "indexed": false,
          "internalType": "uint256",
          "name": "stoveID",
          "type": "uint256"
        },
        {
          "indexed": false,
          "internalType": "uint256",
          "name": "burnTime",
          "type": "uint256"
        },
        {
          "indexed": false,
          "internalType": "uint256",
          "name": "emssionFactor",
          "type": "uint256"
        },
        {
          "indexed": false,
          "internalType": "uint256",
          "name": "gramsCO2e",
          "type": "uint256"
        }
      ],
      "name": "newProofSubmitted",
      "type": "event"
    },
    {
      "anonymous": false,
      "inputs": [
        {
          "indexed": false,
          "internalType": "uint256",
          "name": "stoveID",
          "type": "uint256"
        }
      ],
      "name": "newStoveID",
      "type": "event"
    },
    {
      "anonymous": false,
      "inputs": [
        {
          "indexed": false,
          "internalType": "string",
          "name": "stoveURI",
          "type": "string"
        }
      ],
      "name": "newStoveIPFSURI",
      "type": "event"
    },
    {
      "anonymous": false,
      "inputs": [
        {
          "indexed": false,
          "internalType": "uint256",
          "name": "stoveID",
          "type": "uint256"
        }
      ],
      "name": "stoveIDRemoved",
      "type": "event"
    },
    {
      "inputs": [],
      "name": "CVCUAddress",
      "outputs": [
        {
          "internalType": "address",
          "name": "",
          "type": "address"
        }
      ],
      "stateMutability": "view",
      "type": "function"
    },
    {
      "inputs": [],
      "name": "CVCUInterface",
      "outputs": [
        {
          "internalType": "contract CarbonVCUInterface",
          "name": "",
          "type": "address"
        }
      ],
      "stateMutability": "view",
      "type": "function"
    },
    {
      "inputs": [],
      "name": "cookstoveIPFSURI",
      "outputs": [
        {
          "internalType": "string",
          "name": "",
          "type": "string"
        }
      ],
      "stateMutability": "view",
      "type": "function"
    },
    {
      "inputs": [],
      "name": "creolSuper",
      "outputs": [
        {
          "internalType": "address",
          "name": "",
          "type": "address"
        }
      ],
      "stateMutability": "view",
      "type": "function"
    },
    {
      "inputs": [
        {
          "internalType": "uint256",
          "name": "",
          "type": "uint256"
        }
      ],
      "name": "isValidStoveID",
      "outputs": [
        {
          "internalType": "bool",
          "name": "",
          "type": "bool"
        }
      ],
      "stateMutability": "view",
      "type": "function"
    },
    {
      "inputs": [],
      "name": "owner",
      "outputs": [
        {
          "internalType": "address",
          "name": "",
          "type": "address"
        }
      ],
      "stateMutability": "view",
      "type": "function"
    },
    {
      "inputs": [],
      "name": "pendingCO2eGrams",
      "outputs": [
        {
          "internalType": "uint256",
          "name": "",
          "type": "uint256"
        }
      ],
      "stateMutability": "view",
      "type": "function"
    },
    {
      "inputs": [],
      "name": "renounceOwnership",
      "outputs": [],
      "stateMutability": "nonpayable",
      "type": "function"
    },
    {
      "inputs": [
        {
          "internalType": "address",
          "name": "newOwner",
          "type": "address"
        }
      ],
      "name": "transferOwnership",
      "outputs": [],
      "stateMutability": "nonpayable",
      "type": "function"
    },
    {
      "inputs": [
        {
          "internalType": "address",
          "name": "_creolSuper",
          "type": "address"
        },
        {
          "internalType": "address",
          "name": "_CVCU",
          "type": "address"
        }
      ],
      "name": "initalizeTonMinter",
      "outputs": [],
      "stateMutability": "nonpayable",
      "type": "function"
    },
    {
      "inputs": [
        {
          "internalType": "uint256",
          "name": "stoveID",
          "type": "uint256"
        },
        {
          "internalType": "uint256",
          "name": "_burnTime",
          "type": "uint256"
        },
        {
          "internalType": "uint256",
          "name": "_emissionFactor",
          "type": "uint256"
        },
        {
          "internalType": "uint256",
          "name": "_gramsCO2e",
          "type": "uint256"
        }
      ],
      "name": "submitCarbonProof",
      "outputs": [],
      "stateMutability": "nonpayable",
      "type": "function"
    },
    {
      "inputs": [],
      "name": "mintCVCU",
      "outputs": [],
      "stateMutability": "nonpayable",
      "type": "function"
    },
    {
      "inputs": [
        {
          "internalType": "uint256",
          "name": "stoveID",
          "type": "uint256"
        }
      ],
      "name": "getProofs",
      "outputs": [
        {
          "components": [
            {
              "internalType": "uint256",
              "name": "burnTime",
              "type": "uint256"
            },
            {
              "internalType": "uint256",
              "name": "emissionFactor",
              "type": "uint256"
            },
            {
              "internalType": "uint256",
              "name": "gramsCO2e",
              "type": "uint256"
            }
          ],
          "internalType": "struct TonMinter.stoveProof[]",
          "name": "_stoveProofs",
          "type": "tuple[]"
        }
      ],
      "stateMutability": "view",
      "type": "function"
    },
    {
      "inputs": [
        {
          "internalType": "uint256",
          "name": "stoveID",
          "type": "uint256"
        }
      ],
      "name": "addStoveID",
      "outputs": [],
      "stateMutability": "nonpayable",
      "type": "function"
    },
    {
      "inputs": [
        {
          "internalType": "uint256",
          "name": "stoveID",
          "type": "uint256"
        }
      ],
      "name": "removeStoveID",
      "outputs": [],
      "stateMutability": "nonpayable",
      "type": "function"
    },
    {
      "inputs": [
        {
          "internalType": "string",
          "name": "_stoveURI",
          "type": "string"
        }
      ],
      "name": "setStoveURI",
      "outputs": [],
      "stateMutability": "nonpayable",
      "type": "function"
    }
  ],
  "bytecode": "0x60c0604052600b60808190526a746573745552492e636f6d60a81b60a09081526200002e916067919062000043565b503480156200003c57600080fd5b5062000126565b8280546200005190620000e9565b90600052602060002090601f016020900481019282620000755760008555620000c0565b82601f106200009057805160ff1916838001178555620000c0565b82800160010185558215620000c0579182015b82811115620000c0578251825591602001919060010190620000a3565b50620000ce929150620000d2565b5090565b5b80821115620000ce5760008155600101620000d3565b600281046001821680620000fe57607f821691505b602082108114156200012057634e487b7160e01b600052602260045260246000fd5b50919050565b6111c580620001366000396000f3fe608060405234801561001057600080fd5b50600436106101005760003560e01c8063a7efa46211610097578063d7ccfa7711610066578063d7ccfa77146101e8578063e833cfd6146101f0578063ef975a4014610203578063f2fde38b1461021657610100565b8063a7efa4621461018b578063bff4a7c7146101a0578063c31e2c31146101b3578063cc829617146101d357610100565b80634ad36514116100d35780634ad365141461016b578063715018a6146101735780637b5f4bf51461017b5780638da5cb5b1461018357610100565b8063181d6bda14610105578063223dc2f81461011a5780632d7eef101461012d57806337800b2214610156575b600080fd5b610118610113366004610c04565b610229565b005b610118610128366004610cef565b6102ea565b61014061013b366004610cd7565b61045a565b60405161014d9190610e5a565b60405180910390f35b61015e61046f565b60405161014d9190610dc1565b61015e61047e565b61011861048d565b610118610516565b61015e6105f1565b610193610600565b60405161014d9190610e65565b6101186101ae366004610cd7565b61068e565b6101c66101c1366004610cd7565b610709565b60405161014d9190610e01565b6101db610793565b60405161014d91906110c9565b61015e610799565b6101186101fe366004610c36565b6107a8565b610118610211366004610cd7565b610816565b610118610224366004610be3565b610889565b600054610100900460ff1680610242575060005460ff16155b6102675760405162461bcd60e51b815260040161025e90610fa4565b60405180910390fd5b600054610100900460ff16158015610292576000805460ff1961ff0019909116610100171660011790555b61029a61094a565b606580546001600160a01b038086166001600160a01b031992831617909255606680549285169282168317905560688054909116909117905580156102e5576000805461ff00191690555b505050565b6000848152606b602052604090205460ff166103185760405162461bcd60e51b815260040161025e90610f48565b600081116103385760405162461bcd60e51b815260040161025e90610f75565b600083116103585760405162461bcd60e51b815260040161025e90611050565b600082116103785760405162461bcd60e51b815260040161025e90610ecb565b610380610b12565b838152602080820184815260408084018581526000898152606a85528281208054600181810183559183529590912086516003909602019485559251928401929092559051600290920191909155517f79d86c0e1e4c777b1b6e312fedf8c5e7c9ba3f57cbba19e9baf50219da46516d906104029087908790879087906110d2565b60405180910390a18160695461041891906110f9565b60698190556040517f22a7e81dcab828ca10b780e1e72fc39cf44a8e9ebdc86f349d4782561c6c516f9161044b916110c9565b60405180910390a15050505050565b606b6020526000908152604090205460ff1681565b6065546001600160a01b031681565b6066546001600160a01b031681565b6104956109cf565b6001600160a01b03166104a66105f1565b6001600160a01b0316146104cc5760405162461bcd60e51b815260040161025e90610ff2565b6033546040516000916001600160a01b0316907f8be0079c531659141344cd1fd0a4f28419497f9722a3daafe3b4186f6b6457e0908390a3603380546001600160a01b0319169055565b620f42406069541161053a5760405162461bcd60e51b815260040161025e9061107f565b60685460655460405163d1a8667f60e01b81526001600160a01b039283169263d1a8667f9261057192911690606790600401610dd5565b600060405180830381600087803b15801561058b57600080fd5b505af115801561059f573d6000803e3d6000fd5b50505050620f42406069546105b49190611111565b60698190556040517f22a7e81dcab828ca10b780e1e72fc39cf44a8e9ebdc86f349d4782561c6c516f916105e7916110c9565b60405180910390a1565b6033546001600160a01b031690565b6067805461060d90611128565b80601f016020809104026020016040519081016040528092919081815260200182805461063990611128565b80156106865780601f1061065b57610100808354040283529160200191610686565b820191906000526020600020905b81548152906001019060200180831161066957829003601f168201915b505050505081565b6065546001600160a01b031633146106b85760405162461bcd60e51b815260040161025e90611027565b6000818152606b602052604090819020805460ff19169055517fc6a300a4a4cdd441d3e1b6c8e13100a7572fcb5c9e7cf89ba2869c808d99bf95906106fe9083906110c9565b60405180910390a150565b6000818152606a60209081526040808320805482518185028101850190935280835260609492939192909184015b828210156107875783829060005260206000209060030201604051806060016040529081600082015481526020016001820154815260200160028201548152505081526020019060010190610737565b5050505090505b919050565b60695481565b6068546001600160a01b031681565b6065546001600160a01b031633146107d25760405162461bcd60e51b815260040161025e90611027565b80516107e5906067906020840190610b33565b507fd02aa41a1b7a7d0ab7e621afb23e14a93fcfbaa8b7be3a140ddcfc59af8b724a60676040516106fe9190610eb8565b6065546001600160a01b031633146108405760405162461bcd60e51b815260040161025e90611027565b6000818152606b602052604090819020805460ff19166001179055517f1d793d28e39e2a7107fb8bf9d945f9e915594c823fbb9cf81af679c8991191d0906106fe9083906110c9565b6108916109cf565b6001600160a01b03166108a26105f1565b6001600160a01b0316146108c85760405162461bcd60e51b815260040161025e90610ff2565b6001600160a01b0381166108ee5760405162461bcd60e51b815260040161025e90610f02565b6033546040516001600160a01b038084169216907f8be0079c531659141344cd1fd0a4f28419497f9722a3daafe3b4186f6b6457e090600090a3603380546001600160a01b0319166001600160a01b0392909216919091179055565b600054610100900460ff1680610963575060005460ff16155b61097f5760405162461bcd60e51b815260040161025e90610fa4565b600054610100900460ff161580156109aa576000805460ff1961ff0019909116610100171660011790555b6109b26109d3565b6109ba610a46565b80156109cc576000805461ff00191690555b50565b3390565b600054610100900460ff16806109ec575060005460ff16155b610a085760405162461bcd60e51b815260040161025e90610fa4565b600054610100900460ff161580156109ba576000805460ff1961ff00199091166101001716600117905580156109cc576000805461ff001916905550565b600054610100900460ff1680610a5f575060005460ff16155b610a7b5760405162461bcd60e51b815260040161025e90610fa4565b600054610100900460ff16158015610aa6576000805460ff1961ff0019909116610100171660011790555b6000610ab06109cf565b603380546001600160a01b0319166001600160a01b038316908117909155604051919250906000907f8be0079c531659141344cd1fd0a4f28419497f9722a3daafe3b4186f6b6457e0908290a35080156109cc576000805461ff001916905550565b60405180606001604052806000815260200160008152602001600081525090565b828054610b3f90611128565b90600052602060002090601f016020900481019282610b615760008555610ba7565b82601f10610b7a57805160ff1916838001178555610ba7565b82800160010185558215610ba7579182015b82811115610ba7578251825591602001919060010190610b8c565b50610bb3929150610bb7565b5090565b5b80821115610bb35760008155600101610bb8565b80356001600160a01b038116811461078e57600080fd5b600060208284031215610bf4578081fd5b610bfd82610bcc565b9392505050565b60008060408385031215610c16578081fd5b610c1f83610bcc565b9150610c2d60208401610bcc565b90509250929050565b60006020808385031215610c48578182fd5b823567ffffffffffffffff80821115610c5f578384fd5b818501915085601f830112610c72578384fd5b813581811115610c8457610c84611179565b604051601f8201601f1916810185018381118282101715610ca757610ca7611179565b6040528181528382018501881015610cbd578586fd5b818585018683013790810190930193909352509392505050565b600060208284031215610ce8578081fd5b5035919050565b60008060008060808587031215610d04578182fd5b5050823594602084013594506040840135936060013592509050565b805460009060028104600180831680610d3a57607f831692505b6020808410821415610d5a57634e487b7160e01b86526022600452602486fd5b610d6484896110c9565b828015610d785760018114610d8957610db4565b60ff19871682528282019750610db4565b610d92896110ed565b60005b87811015610dae57815484820152908601908401610d95565b83019850505b5050505050505092915050565b6001600160a01b0391909116815260200190565b6001600160a01b0383168152604060208201819052600090610df990830184610d20565b949350505050565b602080825282518282018190526000919060409081850190868401855b82811015610e4d5781518051855286810151878601528501518585015260609093019290850190600101610e1e565b5091979650505050505050565b901515815260200190565b6000602080835283518082850152825b81811015610e9157858101830151858201604001528201610e75565b81811115610ea25783604083870101525b50601f01601f1916929092016040019392505050565b600060208252610bfd6020830184610d20565b6020808252601a908201527f656d697373696f6e466163746f722063616e6e6f742062652030000000000000604082015260600190565b60208082526026908201527f4f776e61626c653a206e6577206f776e657220697320746865207a65726f206160408201526564647265737360d01b606082015260800190565b602080825260139082015272139bdd0818481d985b1a59081cdd1bdd995251606a1b604082015260600190565b60208082526015908201527406772616d73434f32652063616e6e6f74206265203605c1b604082015260600190565b6020808252602e908201527f496e697469616c697a61626c653a20636f6e747261637420697320616c72656160408201526d191e481a5b9a5d1a585b1a5e995960921b606082015260800190565b6020808252818101527f4f776e61626c653a2063616c6c6572206973206e6f7420746865206f776e6572604082015260600190565b6020808252600f908201526e2737ba1021b932b7b61029bab832b960891b604082015260600190565b60208082526015908201527404275726e2074696d652063616e6e6f74206265203605c1b604082015260600190565b6020808252602a908201527f4e6f7420656e6f7567682070656e64696e67434f32654772616d7320666f72206040820152693120746f6e20434f326560b01b606082015260800190565b90815260200190565b93845260208401929092526040830152606082015260800190565b60009081526020902090565b6000821982111561110c5761110c611163565b500190565b60008282101561112357611123611163565b500390565b60028104600182168061113c57607f821691505b6020821081141561115d57634e487b7160e01b600052602260045260246000fd5b50919050565b634e487b7160e01b600052601160045260246000fd5b634e487b7160e01b600052604160045260246000fdfea2646970667358221220b9554bdd1b8b4ea556f26573dad0d14027d4b28cab9f0a992ea9568ae9ab7c0a64736f6c63430008000033",
  "immutableReferences": {},
  "source": "/*\n  @title TonMinter v0.0.1\n ________  ________  _______   ________  ___          \n|\\   ____\\|\\   __  \\|\\  ___ \\ |\\   __  \\|\\  \\         \n\\ \\  \\___|\\ \\  \\|\\  \\ \\   __/|\\ \\  \\|\\  \\ \\  \\        \n \\ \\  \\    \\ \\   _  _\\ \\  \\_|/_\\ \\  \\\\\\  \\ \\  \\       \n  \\ \\  \\____\\ \\  \\\\  \\\\ \\  \\_|\\ \\ \\  \\\\\\  \\ \\  \\____  \n   \\ \\_______\\ \\__\\\\ _\\\\ \\_______\\ \\_______\\ \\_______\\\n    \\|_______|\\|__|\\|__|\\|_______|\\|_______|\\|_______|\n                                             \n \n \n\n  _______          __  __ _       _            \n |__   __|        |  \\/  (_)     | |           \n    | | ___  _ __ | \\  / |_ _ __ | |_ ___ _ __ \n    | |/ _ \\| '_ \\| |\\/| | | '_ \\| __/ _ \\ '__|\n    | | (_) | | | | |  | | | | | | ||  __/ |   \n    |_|\\___/|_| |_|_|  |_|_|_| |_|\\__\\___|_|   \n                                               \n                                               \n                        \nAuthor:      Joshua Bijak\nDate:        April 09, 2021\nTitle:       TonMinter Prototype\nDescription: Contract that accepts signed proofs of a IoT Cookstove and mints an NFT ton when it hits 1000kg\n              \n  ___                            _       \n|_ _|_ __ ___  _ __   ___  _ __| |_ ___ \n | || '_ ` _ \\| '_ \\ / _ \\| '__| __/ __|\n | || | | | | | |_) | (_) | |  | |_\\__ \\\n|___|_| |_| |_| .__/ \\___/|_|   \\__|___/\n              |_|                       \n\n*/\npragma solidity ^0.8.0;\npragma abicoder v2;\n\n\n\nimport \"@openzeppelin/contracts-upgradeable/access/OwnableUpgradeable.sol\";\nimport \"@openzeppelin/contracts-upgradeable/utils/math/SafeMathUpgradeable.sol\";\nimport \"@openzeppelin/contracts-upgradeable/proxy/utils/Initializable.sol\";\n\nimport \"./CarbonVCUInterface.sol\";\n/*\n  _____            _                  _   \n / ____|          | |                | |  \n| |     ___  _ __ | |_ _ __ __ _  ___| |_ \n| |    / _ \\| '_ \\| __| '__/ _` |/ __| __|\n| |___| (_) | | | | |_| | | (_| | (__| |_ \n \\_____\\___/|_| |_|\\__|_|  \\__,_|\\___|\\__|\n\n*/\n/**\n * @author Joshua Bijak\n * @title TonMinter\n * @dev  Contract that accepts signed proofs of a IoT Cookstove and mints an NFT ton when it hits 1000kg\n * @notice Prototype Contract that accepts signed proofs of a IoT Cookstove and mints an NFT ton when it hits 1000kg\n * \n */\ncontract TonMinter is Initializable, OwnableUpgradeable {\n    \n    /**\n     * \n          ______               _       \n         |  ____|             | |      \n         | |____   _____ _ __ | |_ ___ \n         |  __\\ \\ / / _ \\ '_ \\| __/ __|\n         | |___\\ V /  __/ | | | |_\\__ \\\n         |______\\_/ \\___|_| |_|\\__|___/\n                                       \n     * \n     * \n     */\n    event newProofSubmitted(uint256 stoveID, uint256 burnTime, uint256 emssionFactor, uint256 gramsCO2e);\n    event newPendingCO2eGrams(uint256 pendingCO2eGrams);\n    event newStoveID(uint256 stoveID);\n    event stoveIDRemoved(uint256 stoveID);\n    event newStoveIPFSURI(string stoveURI);\n    \n        \n    /**\n     * \n     *    _____ _        _   _          \n         / ____| |      | | (_)         \n        | (___ | |_ __ _| |_ _  ___ ___ \n         \\___ \\| __/ _` | __| |/ __/ __|\n         ____) | || (_| | |_| | (__\\__ \\\n        |_____/ \\__\\__,_|\\__|_|\\___|___/\n     * \n     * \n     */\n     \n    using SafeMathUpgradeable for uint256;\n    \n    address public creolSuper;\n    address public CVCUAddress;\n    \n    string public cookstoveIPFSURI =\"testURI.com\";\n    \n    CarbonVCUInterface public CVCUInterface;\n    \n    uint256 public pendingCO2eGrams;\n    \n    struct stoveProof {\n        uint256 burnTime;\n        uint256 emissionFactor;\n        uint256 gramsCO2e;\n    }\n    \n    struct stoveProofs {\n        stoveProof[] proofCollection;\n    }\n    \n    \n    mapping (uint256 => stoveProofs) private UUIDtoStoveProofs;\n    mapping (uint256 => bool) public isValidStoveID;\n    \n    \n    /**\n     *   __  __           _ _  __ _               \n        |  \\/  |         | (_)/ _(_)              \n        | \\  / | ___   __| |_| |_ _  ___ _ __ ___ \n        | |\\/| |/ _ \\ / _` | |  _| |/ _ \\ '__/ __|\n        | |  | | (_) | (_| | | | | |  __/ |  \\__ \\\n        |_|  |_|\\___/ \\__,_|_|_| |_|\\___|_|  |___/\n        \n    */\n    modifier onlyCreolSuper(){\n        require(msg.sender == creolSuper, \"Not Creol Super\");\n        _;\n    }\n    \n   \n     \n     /**\n      *   ______                _   _                 \n         |  ____|              | | (_)                \n         | |__ _   _ _ __   ___| |_ _  ___  _ __  ___ \n         |  __| | | | '_ \\ / __| __| |/ _ \\| '_ \\/ __|\n         | |  | |_| | | | | (__| |_| | (_) | | | \\__ \\\n         |_|   \\__,_|_| |_|\\___|\\__|_|\\___/|_| |_|___/\n     */\n     \n    \n     \n     constructor () public {\n         \n     }\n     \n     function initalizeTonMinter (address _creolSuper, address _CVCU)  public initializer {\n         \n         OwnableUpgradeable.__Ownable_init();\n         creolSuper = _creolSuper;\n         CVCUAddress = _CVCU;\n         CVCUInterface = CarbonVCUInterface(_CVCU);\n         \n         \n     }\n     /**\n      * @dev submits a new proof to be tracked by the smart contract on chain, if it hits 1000kg, it triggers a minting on the CVCU contract\n      * @param stoveID The IoT Cookstove UUID\n      * @param _burnTime Burntime of the stove in seconds\n      * @param _emissionFactor Emission Factor used for the calculation\n      * @param _gramsCO2e Total Grams calculated for emission reduction\n      */\n     \n     function submitCarbonProof (uint256 stoveID, uint256 _burnTime, uint256 _emissionFactor, uint256 _gramsCO2e) public {\n         \n         require( isValidStoveID[stoveID], \"Not a valid stoveID\");\n         require( _gramsCO2e > 0, \"gramsCO2e cannot be 0\");\n         require( _burnTime > 0, \"Burn time cannot be 0\");\n         require( _emissionFactor > 0, \"emissionFactor cannot be 0\");\n        \n         stoveProof memory _toBeAddedProof;\n         _toBeAddedProof.burnTime = _burnTime;\n         _toBeAddedProof.emissionFactor = _emissionFactor;\n         _toBeAddedProof.gramsCO2e = _gramsCO2e;\n         \n         UUIDtoStoveProofs[stoveID].proofCollection.push(_toBeAddedProof);\n         \n         emit newProofSubmitted(stoveID,_burnTime, _emissionFactor, _gramsCO2e);\n         \n         pendingCO2eGrams = pendingCO2eGrams + _gramsCO2e;\n         \n         emit newPendingCO2eGrams(pendingCO2eGrams);\n         \n         \n     }\n    /**\n      * @dev Allows caller to mint CVCUs when there is a threshold amount of CO2e in the contract, they are minted to the defined creolSuper address\n      */\n     function mintCVCU() public  {\n         \n         require(pendingCO2eGrams > 1000000, \"Not enough pendingCO2eGrams for 1 ton CO2e\");\n         \n         CVCUInterface.mintVCU(creolSuper, cookstoveIPFSURI);\n         \n         pendingCO2eGrams = pendingCO2eGrams - 1000000;\n         \n         emit newPendingCO2eGrams(pendingCO2eGrams);\n         \n         \n     }\n     \n     \n     /**\n      * @dev Returns the stove proofs for a given stoveID\n      * @param stoveID Stove ID to query\n      */\n     function getProofs(uint256 stoveID) public view returns (stoveProof[] memory _stoveProofs) {\n         \n         return UUIDtoStoveProofs[stoveID].proofCollection;\n         \n     }\n     /**\n      * @dev add an approved stoveID to the contract\n      * @param stoveID Unique stoveID number\n      */\n     function addStoveID (uint256 stoveID) public onlyCreolSuper {\n         \n         isValidStoveID[stoveID] = true;\n         emit newStoveID(stoveID);\n     }\n     /**\n      * @dev remove an approved stoveID to the contract\n      * @param stoveID Unique stoveID number\n      */\n     function removeStoveID(uint256 stoveID) public onlyCreolSuper {\n         \n         isValidStoveID[stoveID] = false;\n         emit stoveIDRemoved(stoveID);\n     }\n     function setStoveURI(string memory _stoveURI) public onlyCreolSuper {\n         \n         cookstoveIPFSURI = _stoveURI;\n         emit newStoveIPFSURI(cookstoveIPFSURI);\n     } \n    \n\n/**\n * \n * \n *   _                      _ \n    | |                    | |\n    | |     ___  __ _  __ _| |\n    | |    / _ \\/ _` |/ _` | |\n    | |___|  __/ (_| | (_| | |\n    |______\\___|\\__, |\\__,_|_|\n                 __/ |        \n                |___/    \n * \n * They come with no warranty and are not for use in a production setting. For production usage, please contact joshua.bijak@creol.io\n * \n */\n }\n \n",
  "sourcePath": "/d/Repos/creol-io/ECS-TonMinter/contracts/TonMinter.sol",
  "compiler": {
    "name": "solc",
    "version": "0.8.0+commit.c7dfd78e.Emscripten.clang"
  },
  "schemaVersion": "3.4.1",
  "updatedAt": "2021-07-05T21:26:32.937Z",
  "devdoc": {
    "author": "Joshua Bijak",
    "details": "Contract that accepts signed proofs of a IoT Cookstove and mints an NFT ton when it hits 1000kg",
    "kind": "dev",
    "methods": {
      "addStoveID(uint256)": {
        "details": "add an approved stoveID to the contract",
        "params": {
          "stoveID": "Unique stoveID number"
        }
      },
      "getProofs(uint256)": {
        "details": "Returns the stove proofs for a given stoveID",
        "params": {
          "stoveID": "Stove ID to query"
        }
      },
      "mintCVCU()": {
        "details": "Allows caller to mint CVCUs when there is a threshold amount of CO2e in the contract, they are minted to the defined creolSuper address"
      },
      "owner()": {
        "details": "Returns the address of the current owner."
      },
      "removeStoveID(uint256)": {
        "details": "remove an approved stoveID to the contract",
        "params": {
          "stoveID": "Unique stoveID number"
        }
      },
      "renounceOwnership()": {
        "details": "Leaves the contract without owner. It will not be possible to call `onlyOwner` functions anymore. Can only be called by the current owner. NOTE: Renouncing ownership will leave the contract without an owner, thereby removing any functionality that is only available to the owner."
      },
      "submitCarbonProof(uint256,uint256,uint256,uint256)": {
        "details": "submits a new proof to be tracked by the smart contract on chain, if it hits 1000kg, it triggers a minting on the CVCU contract",
        "params": {
          "_burnTime": "Burntime of the stove in seconds",
          "_emissionFactor": "Emission Factor used for the calculation",
          "_gramsCO2e": "Total Grams calculated for emission reduction",
          "stoveID": "The IoT Cookstove UUID"
        }
      },
      "transferOwnership(address)": {
        "details": "Transfers ownership of the contract to a new account (`newOwner`). Can only be called by the current owner."
      }
    },
    "title": "TonMinter",
    "version": 1
  },
  "userdoc": {
    "events": {
      "newProofSubmitted(uint256,uint256,uint256,uint256)": {
        "notice": " ______               _        |  ____|             | |       | |____   _____ _ __ | |_ ___  |  __\\ \\ / / _ \\ '_ \\| __/ __| | |___\\ V /  __/ | | | |_\\__ \\ |______\\_/ \\___|_| |_|\\__|___/  "
      }
    },
    "kind": "user",
    "methods": {
      "constructor": {
        "notice": "______                _   _                  |  ____|              | | (_)                 | |__ _   _ _ __   ___| |_ _  ___  _ __  ___  |  __| | | | '_ \\ / __| __| |/ _ \\| '_ \\/ __| | |  | |_| | | | | (__| |_| | (_) | | | \\__ \\ |_|   \\__,_|_| |_|\\___|\\__|_|\\___/|_| |_|___/"
      }
    },
    "notice": "Prototype Contract that accepts signed proofs of a IoT Cookstove and mints an NFT ton when it hits 1000kg ",
    "version": 1
  }
}